:0400000075EF08F0A0
:100F000000696E7469616C69736174696F6E2063E6
:100F10006F6D706C6574650A0D0025630000000E2E
:100F20003D6E030E3D6401D00ED03D50010D010E0B
:100F3000F324D96E000EF420DA6E550E16EC09F08B
:100F4000DF6E3D2AEED7000E3D6E12D03D504D6E45
:100F50004E6A040E4D26000E4E22010E4D24D96E0F
:100F6000000E4E20DA6E550E16EC09F0DF6E3D2AAB
:100F700004503D5CD8A0EAD7000E3D6E19D01A0E81
:100F8000436E0F0E446E3D504D6E4E6A040E4D265C
:100F9000000E4E22010E4D24D96E000E4E20DA6E48
:100FA000DF504F6E4F50456E466AE0EC07F03D2A29
:100FB00004503D5CD8A0E3D703C04BF04C6A12004C
:100FC000450E486E000E496E2AD0250E4A18D8B438
:100FD00004D04A502FEC09F022D0000E476E0ED0FC
:100FE00048C0D9FF49C0DAFFDF504A6E020E4826DA
:100FF000000E49224A502FEC09F011D043C0F6FFF1
:1010000044C0F7FF434A442A0800F5CF4AF04A504B
:10101000000AD8B41200630AD8B4E2D7EBD743C0B1
:10102000F6FF44C0F7FF434A442A0800F5CF4AF0D0
:101030004A50D8B41200C9D7000E566E000E576E33
:10104000000E426E000E416EF2EC08F050C041F00E
:1010500051C042F055EC08F024D0E3EC08F041C058
:1010600054F042C055F055BE08D0EC0E545C2C0E26
:101070005558D8A002D0010E576E000E446E600E77
:10108000436E000E466E060E456ED1EC08F0566EAD
:101090005604D8A406D08FEC07F04BC052F04CC0D9
:1010A00053F05750D8A41200D8D78A928A948A96BF
:1010B0008A988A9AA60E41184210D8B48A82A10E44
:1010C00041184210D8B48A84A20E41184210D8B4F4
:1010D0008A86A30E41184210D8B48A88A40E4118FB
:1010E0004210D8A412008A8A1200720EF66E120EF6
:1010F000F76E000EF86E00EE58F010EE04F00900E6
:10110000F5CFEEFFE550E150FAE100EE01F0400EC0
:10111000EE6AE806FDE1000EF86E0001A7EF08F0A8
:10112000000E896E000E8A6E000E8B6EED0E926EB2
:10113000C10E936E9F0E946E0F0E0F015D6F070E22
:101140000F015C6F000E0F015B6FF18E120000EC5F
:1011500009F034EC09F0010E436E0F0E446EE0EC22
:1011600007F0000E406E3BEC09F0000E516EA10E30
:10117000506E1CEC08F0F9D7000EAA6ECF0ECF6EA1
:101180002C0ECE6ECE50CFCF41F0426A41C042F01D
:10119000416A41105C6E42505D6E9E90310ECD6E84
:1011A0001200455016EC09F0476E4750486E496AE8
:1011B0004350481806E144504918D8A402D0010E03
:1011C0001200000E1200CECF48F0CFCF47F04750AC
:1011D000436E4850456E43C046F045C041F046C09E
:1011E00042F01200CDA407D0CD904250CF6E41C046
:1011F000CEFFCD8012004250CF6E41C0CEFF120014
:1012000090EC08F020EC09F034EC09F0BCEC08F0AC
:101210000BEC09F01200080EA76E900EAB6E240EB8
:10122000AC6E080EAF6E020E7D6E1200426EC9CF1C
:1012300041F0C69E42C0C9FFC7A0FED7C9501200E8
:10124000600ED36E000ED26E000E9B6E000E9A6E74
:101250001200416E9EA8FED741C0ADFF1200426E43
:10126000425029EC09F01200400EC76E240EC66EE3
:0A127000120000015501CD801200AC
:020000040020DA
:08000000FFFFFFFFFFFFFFFF00
:020000040030CA
:0E00000015027F7CFF8991FF0FC00FE00F40BB
:00000001FF
