:0400000019EF09F0FB
:100F000000696E7469616C69736174696F6E2063E6
:0B0F10006F6D706C6574650A0D0000C9
:100F1C00040E0424476E486A000E4822000E426EEE
:100F2C00A10E416EF1EC08F0000E3D6E0DD03D505F
:100F3C00010D010EF324D96E000EF420DA6EDF5091
:100F4C00DEEC09F03E6E3D2A3D50446E456A47503A
:100F5C00445C4550800A466E4850800A4658D8A0DA
:100F6C00E6D7000E426EA20E416EF1EC08F0000EB8
:100F7C003D6E0DD03D50010D010EF324D96E000EC7
:100F8C00F420DA6EDF50DEEC09F03E6E3D2A3D5067
:100F9C00446E456A4750445C4550800A466E485042
:100FAC00800A4658D8A0E6D7000E426EA30E416EBA
:100FBC00F1EC08F0000E3D6E0DD03D50010D010E10
:100FCC00F324D96E000EF420DA6EDF50DEEC09F05B
:100FDC003E6E3D2A3D50446E456A4750445C455038
:100FEC00800A466E4850800A4658D8A0E6D7000EB4
:100FFC00426EA40E416EF1EC08F0000E3D6E0DD069
:10100C003D50010D010EF324D96E000EF420DA6E62
:10101C00DF50DEEC09F03E6E3D2A3D50446E456AD1
:10102C004750445C4550800A466E4850800A4658EA
:10103C00D8B01200E5D7000E526E000E516E000EA5
:10104C00426E000E416EADEC09F04DC041F04EC049
:10105C0042F0F1EC08F060D09EEC09F041C04FF08A
:10106C0042C050F050BE08D0EC0E4F5C2C0E5058C5
:10107C00D8A002D0010E516E000E446E600E436E6D
:10108C00000E466E060E456E8CEC09F0526E520444
:10109C00D8A442D0000E526E96EC08F043C053F028
:1010AC0044C054F0EE0E53185410D8B40CD014D0D5
:1010BC00000E446E6F0E436E000E466EA60E456E0D
:1010CC008CEC09F0526E5250D8B4F2D702C044F0F6
:1010DC00456AC7EC08F020D0DD0E53185410D8A484
:1010EC0007D0000E456EA60E446EC7EC08F014D067
:1010FC00CC0E53185410D8A403D08EEC07F00CD09F
:10110C00BB0E53185410D8A407D002C04BF04C6A35
:10111C00BBEC09F08EEC07F05150D8A412009CD710
:10112C00000E3D6E030E3D6401D00ED03D50010DFE
:10113C00010EF324D96E000EF420DA6E550EDEEC9F
:10114C0009F0DF6E3D2AEED7000E3D6E12D03D50F9
:10115C00456E466A040E4526000E4622010E4524B5
:10116C00D96E000E4620DA6E550EDEEC09F0DF6EFD
:10117C003D2A04503D5CD8A0EAD703C043F0446A32
:10118C00120044C041F045C042F0F1EC08F0040EEE
:10119C000424496E4A6A000E4A22000E3D6E0DD0A0
:1011AC003D50010D010EF324D96E000EF420DA6EC1
:1011BC00DF50DEEC09F03E6E3D2A3D50466E476A2C
:1011CC004950465C4750800A486E4A50800A48583D
:1011DC00D8B01200E5D78A828A848A868A888A8A5D
:1011EC00410E436EEE0EE82EFED7432EFCD700D0F8
:1011FC00A60E41184210D8B48A92A10E4118421082
:10120C00D8B48A94A20E41184210D8B48A96A30E70
:10121C0041184210D8B48A98A40E41184210D8A490
:10122C0012008A9A1200020EF66E140EF76E000E61
:10123C00F86E00EE55F010EE04F00900F5CFEEFF5D
:10124C00E550E150FAE100EE01F0400EEE6AE806DE
:10125C00FDE1000EF86E0F0EF76E00014DEF09F078
:10126C00000E896E000E8A6E000E8B6EED0E926E65
:10127C00C10E936E9F0E946E0F0E0F015D6F070ED5
:10128C000F015C6F000E0F015B6FF18E1200C8EC4A
:10129C0009F0FCEC09F0010E436E0F0E446E62EC8B
:1012AC0009F0000E406E03EC0AF0000E4E6EA10E1B
:1012BC004D6E21EC08F0F9D7450E456E000E466ECA
:1012CC0003D04750F7EC09F043C0F6FF44C0F7FFDA
:1012DC00434A442A0800F5CF47F04750D8B41200CF
:1012EC00F0D7000EAA6ECF0ECF6E2C0ECE6ECE5057
:1012FC00CFCF41F0426A41C042F0416A4110596E71
:10130C0042505A6E9E90310ECD6E12004550DEEC5E
:10131C0009F0476E4750486E496A4350481806E139
:10132C0044504918D8A402D0010E1200000E12002D
:10133C00CECF48F0CFCF47F04750436E4850456E64
:10134C0043C046F045C041F046C042F01200CDA467
:10135C0007D0CD904250CF6E41C0CEFFCD80120051
:10136C004250CF6E41C0CEFF12004BC041F04CC07A
:10137C0042F0F1EC08F04BC044F04CC045F0C7EC27
:10138C0008F0120036EC09F0E8EC09F0FCEC09F07E
:10139C0077EC09F0D3EC09F01200080EA76E900E52
:1013AC00AB6E240EAC6E080EAF6E020E7D6E12008C
:1013BC00426EC9CF41F0C69E42C0C9FFC7A0FED73E
:1013CC00C9501200600ED36E000ED26E000E9B6ED2
:1013DC00000E9A6E1200416E9EA8FED741C0ADFF62
:1013EC001200426E4250F1EC09F01200400EC76E32
:0E13FC00240EC66E120000015501CD801200B5
:020000040020DA
:08000000FFFFFFFFFFFFFFFF00
:020000040030CA
:0E00000015027F7CFF8991FF0FC00FE00F40BB
:00000001FF
