:08000000803102288731FD2F39
:100D0E0038302100990008001630210097000800A5
:100D1E00F0002000111E902E700823009A0008008B
:100D2E002000911E972E23009D1C9F2E9D139D1714
:100D3E0019080800083023009F0090309D002430D1
:100D4E009E000C309B009C0108008631B82686312F
:100D5E0086318726863186318B2686318631A126CD
:100D6E00080022008C018D0148308E003F3021009A
:100D7E008C0070308D00A7308E00483023008E001E
:100D8E008D0113308C0024008D018C0121009513F0
:100D9E0022009D0108008631AC2686312000B0016C
:100DAE0020000C0C890C0139F100F2017108A10030
:100DBE007208A2000D0E0139F100F2017108A300B4
:100DCE007208A4000D0E890C890C0139F100F20194
:100DDE007108A5007208A6000E080139F100F20193
:100DEE007108A7007208A8000E0C0139F100F2017B
:100DFE007108A9007208AA000E0C890C0139F100C5
:100E0E00F2017108AB007208AC000E0D0E0D013927
:100E1E00F100F2017108AD007208AE00863197261E
:100E2E008631F10071082000A00077302006031DE6
:100E3E00342F3003031D252F31302A2F2000300888
:100E4E00031D2D2F303086318F26863120002F083E
:100E5E0086318F2686312000B00121032204031D26
:100E6E004C2F4130F1007108AF00B001B00A2103E0
:100E7E002204031DF32F0C0C890C0139F100F20131
:100E8E007108A1007208A2003E2F20002303240443
:100E9E00031D682F5830F1007108AF00B001B00A81
:100EAE0023032404031D642F0D0E0139F100F201FA
:100EBE007108A3007208A400572F22000E138E157E
:100ECE00F62F200025032604031D852F4430F10044
:100EDE007108AF00B001B00A25032604031D822F4E
:100EEE000D0E890C890C0139F100F2017108A50073
:100EFE007208A600732F22000E13BB2F20002703AB
:100F0E002804031DA12F4C30F1007108AF00B00171
:100F1E00B00A27032804031D9D2F0E080139F10086
:100F2E00F2017108A7007208A800902F22000E137C
:100F3E008E15BC2F200029032A04031DBE2F553009
:100F4E00F1007108AF00B001B00A29032A04031D95
:100F5E00B92F0E0C0139F100F2017108A9007208C7
:100F6E00AA00AC2F22000E178E110E16D72E2000BF
:100F7E002B032C04031DDA2F5230F1007108AF0041
:100F8E00B001B00A2B032C04031DD72F0E0C890CB5
:100F9E000139F100F2017108AB007208AC00C92FE3
:100FAE0022000E13F52F20002D032E04031DF82F03
:100FBE004230F1007108AF00B001B00A2D032E04CB
:100FCE00031DF32F0E0D0E0D0139F100F201710804
:100FDE00AD007208AE00E52F22000E178E110E1214
:100FEE00D72E303086318F268631D72E200086318F
:020FFE00D22EF1
:020000040001F9
:04000E00E4FFFFFF0D
:00000001FF
